:100000000C94A80A0C94D00A0C94D00A0C94D00A30
:100010000C94D00A0C94D00A0C94D00A0C941914A5
:100020000C94D00A0C94D00A0C94D00A0C94D00AE8
:100030000C94D00A0C94D00A0C94D00A0C94D00AD8
:100040000C94EB140C94D00A0C94D00A0C94D00AA3
:100050000C94D00A0C94D00A0C94D00A0C94D00AB8
:100060000C9435150C94D00A00000000000000002C
:1000700007FC000000001FFF000000001FFF8000C1
:1000800000003FFFE00000007FFFF0000000FFFFE6
:10009000F8000001FFFFFC0000037C7FFE0000026F
:1000A000F9FFFE00000CF3FFFF00001FF47FFF804C
:1000B000007FF07FFFC000FFF8FFFFC003FFFFFFDE
:1000C000FFC00FFFFFFFFFE01FE7FFE0FFE03FDFA4
:1000D000FFDEFFF07FBFFFBF7FF07F7FFE77BFF8BF
:1000E0007F7FF9F7BFFC3FFFE7EFBFFE5FFE1FDF3B
:1000F000BFFF67F1FF3FBFFF380FFCFFBFFF1FFFD0
:10010000F3FF3FFF0FFFCFFEEFFF00383FF957FF30
:100110000783FFEAABFF01FFFE1555FF00FFF00A62
:10012000AAFF003FC005555F00000002AAAF000013
:100130000005555700000002AAAB0000000155550C
:1001400000000000AAAA00000000555500000000B1
:100150000AAA000000000155000000000000000095
:1001600007FC000000001FFF000000001FFF8000D0
:1001700000003FFFE00000007FFFF0000000FFFFF5
:10018000F8000001FFFFFC0000037C7FFE0000027E
:10019000F9FFFE00000CF3FFFF00001FF47FFF805B
:1001A000007FF07FFFC000FFF8FFFFC003FFFFFFED
:1001B000FFC00FFFFFFFFFE01FE7FFE0FFE03FDFB3
:1001C000FFDEFFF07FBFFFBF7FF07F7FFE77BFF8CE
:1001D0007F7FF9F7BFFC3FFFE7EFBFFE5FFE1F1F0A
:1001E000BFFF67F1F91FBFFF380FE83FBFFF1FFFD9
:1001F000E17F3FFF0EFE41FEEFFF04D40BFD57FFF2
:1002000000D40FFAABFF00609FF555FF0075FFCAE1
:10021000AAFF003FFF05555F001FFC02AAAF0007C1
:10022000C001555700000000AAAB000000001555A2
:10023000000000000AAA00000000055500000000B0
:1002400002AA0000000001550000000000000000AC
:1002500007FC000000001FFF000000001FFF8000DF
:1002600000003FFFE00000007FFFF0000000FFFF04
:10027000F8000001FFFFFC0000037C7FFE0000028D
:10028000F9FFFE00000CF3FFFF00001FF47FFF806A
:10029000007FF07FFFC000FFF8FFFFC003FFFFFFFC
:1002A000FFC00FFFFFFFFFE01FE7FFE0FFE03FDFC2
:1002B000FFDEFFF07FBFFFBF7FF07F7FFE77BFF8DD
:1002C0007F7FF9F7BFFC3FFFE7EFBFFE5FFE1F1F19
:1002D000BFFF67F1F91FBFFF380FE83FBFFF1FFFE8
:1002E000E03FBFFF0EFE40BF6FFF045400FF57FF0B
:1002F000001001FEABFF001801FD55FF001805FAC4
:10030000AAFF001D27F1555F000F7FE0AAAF00078D
:10031000FF8055570003FE002AAB0001F000155581
:10032000000000000AAA00000000055500000000BF
:1003300002AA0000000001550000000000000000BB
:1003400000000000000000000000000000000000AD
:10035000000000000000000000000000000000009D
:10036000000000000000000000000000000000008D
:10037000000000000000000000000000000000007D
:10038000000000000000000000000000000000006D
:100390000000000603E00000000F8FD80000001DE1
:1003A000FFFC0000003FFEFE0000001BFFFF0000FE
:1003B0000007FFFFC00000005FFDF00000003C1ED2
:1003C000FE0000007A2F0000000000000000000086
:1003D000000000000000000000000000000000001D
:1003E000000000000000000000000000000000000D
:1003F00000000000000000000000000000000000FD
:1004000000000000000000000000000000000000EC
:1004100000000000000000000000000000000000DC
:100420000000000603E00000000F8FF80000001D30
:10043000FFEC0000003FFFFE0000001BFEFF00007D
:100440000007FFFFC00000005BFDF00000003C1F44
:10045000FE000000180C000000000000000000007A
:10046000000000000000000000000000000000008C
:10047000000000000000000000000000000000007C
:10048000000000000000000000000000000000006C
:10049000000000000000000000000000000000005C
:1004A000000000000000000000000000000000004C
:1004B0000000000603E00000000F8FF80000001DA0
:1004C000FFFC0000003FFFDE0000001BFFFF0000FC
:1004D0000007FEFFC00000007BEFF00000003C1FA3
:1004E000FE0000005E3D0000000000000000000073
:1004F00000000000000000000000000000000000FC
:1005000000000000000000000000000000000000EB
:1005100000000000000000000000000000000000DB
:1005200000000000000000000000000000000000CB
:1005300000000000000000000000000000000000BB
:100540000000000007C0600000001BF1F000000088
:100550003FFFB80000007F7FFC000000FFFFD800D5
:100560000003FFFFE000000FBFFA0000007F783CAF
:1005700000000000F45E0000000000000000000029
:10058000000000000000000000000000000000006B
:10059000000000000000000000000000000000005B
:1005A000000000000000000000000000000000004B
:1005B000000000000000000000000000000000003B
:1005C000000000000000000000000000000000002B
:1005D0000000000007C0600000001FF1F0000000F4
:1005E00037FFB80000007FFFFC000000FF7FD8004D
:1005F0000003FFFFE000000FBFDA0000007FF83CBF
:1006000000000000301800000000000000000000A2
:1006100000000000000000000000000000000000DA
:1006200000000000000000000000000000000000CA
:1006300000000000000000000000000000000000BA
:1006400000000000000000000000000000000000AA
:10065000000000000000000000000000000000009A
:100660000000000007C0600000001FF1F000000063
:100670003FFFB80000007BFFFC000000FFFFD80038
:100680000003FF7FE000000FF7DE0000007FF83C72
:1006900000000000BC7A00000000000024002700D9
:1006A0002A00000000000000000F80000000000091
:1006B0000000001FFF000000000000000039FFE004
:1006C000000000000000003BFFF8000000000000F8
:1006D000003FE1FC000000000000007FFE3E000043
:1006E00000000000005EC1DE000000000000007D90
:1006F000802F000000000000003A001F00000000F2
:1007000000000000001F0000000000000000001FAB
:100710000000000000000000001F000000000000BA
:100720000000003F000000000000000000FE00008C
:1007300000000000000001FA0000000000001F801F
:1007400007F4000000000000F5E01FE800000000D2
:100750000007AABC7FD000000000003D555FFFA04D
:100760000000000000EAAAAFFF400000000003D52F
:1007700055FFFE800000000007ABAEBFFD0000008B
:1007800000001F5FDFFFFA00000000003FEEFB6F7C
:10079000F40000000000FFFFFFFFE8000000000180
:1007A000FFF7FFFFD00000000007FFFFFFFFA000E2
:1007B0000000001FFFFFFFFDC000000000FFDFFF83
:1007C000FEFE800000001FFFEFEFFF7F0000000330
:1007D000FFFF9FDFFFBF000000FFFFFC1FA1FC7FAA
:1007E00080000FFFFFE01FB003BF80001FFF8000ED
:1007F0000FC0000000007E000000000000000000AC
:1008000070000000000000000000E0000000000098
:1008100000000000C0000000000000000000C80050
:100820000000000000000000700000000000000058
:1008300000000000000000000039C0000000003986
:10084000C00000000039C0000000003800000000B7
:1008500000380000000007B9CE780FC00FF9CFFCB8
:100860001FE01FF9CFFE3FF03C79CF1E38783839B2
:10087000CE0E70383839CE0E70383839CE0E70380A
:100880003839CE0E70383839CE0E70383C79CE0EED
:1008900078701FF9CE0E3FF00FF9CE0E1FE000006A
:1008A0000000000000020010001025375390E1B84E
:1008B000292251D09390192252509210112373D0B3
:1008C000F198000000008000000000000000206A95
:1008D000616B6F6264657369676E207072657365C2
:1008E0006E74730050657420646965642E2E2E0A40
:1008F0000A507265737320627574746F6E20310ACA
:10090000746F20726573746172740053434F524563
:100910003A004E45572048492D53434F5245210038
:1009200047414D45204F5645520021006F666600F5
:100930006F6E0020792E0020740067657420736D3F
:100940006172746572007768656E206865616C74A9
:100950006820697320626164006B6565702069744A
:10096000206865616C7468790067657420736F6DC9
:1009700065207265737400696E63726561736520CA
:1009800068617070696E6573730021000FE0003F4D
:10099000F80031FE006E7F00D17F80A0BF80A0BF35
:1009A000C0A0BFC0D13FC0AEFFE0D1FFE0EFFFE08D
:1009B00077FFF07BFFD03DFF781EF9FE0F67FF0742
:1009C0007FFF039FFC03C3F901F8C300FF1E001F54
:1009D000FE0001FC0001F00007E0000FE03F1FC037
:1009E00000DF800020000FD7F03FFFFC7FFFFE7884
:1009F000FFFEF07FFFE07FFFE0FFFFF1FFFFFFFF63
:100A0000FFFFFFFFFFFFFFFFFFFF7FFFFE7FFFFEF8
:100A10003FFFFC1FFFF80FFFF007C3E08088018154
:100A200002E027100BF01C087A005A007A005A00E6
:100A3000504155534544007074733A20006C766CF5
:100A40003A20000000000000000200000400000046
:100A50000000000000000000000000000000000096
:100A6000000000001005000015000000000000005C
:100A70000000000040000000000000000000000036
:100A800028150000550000000000000000000000D4
:100A9000000000000000000000000000545540006D
:100AA000554000000000000000800000010000022E
:100AB0000000000000000000541504401500000074
:100AC0000000000002A0000001100008000000006B
:100AD00001000000288424400400000000000440BD
:100AE000008200000110000440000000010002200C
:100AF0000000004100100000000004400088824017
:100B000091042441100000000100000000000000DA
:100B10000000000000000000104444110410110403
:100B200001000000010000000000000000000010B3
:100B3000000000020000000400000210008000001D
:100B4000080004000000000040000004000800202D
:100B5000000100000100000000000800010000008A
:100B6000008080000889C0485C50849C48502288DE
:100B700080442240842E214924A4B114000800524C
:100B80000034006940F08000001E002F005E805F8E
:100B9000C0B7C0FFEEBB55AA110000000000000066
:100BA0000000000000000000000000000000000045
:100BB0000000000000000000000000000000000035
:100BC0000000000000000000000000000000000025
:100BD0000000000000000000000000000000000015
:100BE0000000000000000000000000000000000005
:100BF000000000000007C0600000001FF1F00000CE
:100C0000003BFFB80000007FDFFC000000FFFFD8C2
:100C1000000003FFFFE000000FFFFE0000007DF872
:100C20001F00000003C0078000004000000000001B
:100C300000000000000000000400E00000000000D0
:100C400000000000000000000E01F00000000000A5
:100C500000000000000000001F03F8030000000077
:100C600000000100000000003F0774078010000032
:100C70008000068000000000D50EC20DC0280101D2
:100C8000C1001F4000000001281D131B6054038396
:100C9000A380362000000006D03A41B430E2CCF701
:100CA00057C0D810000000192068844919A1365D8A
:100CB0002AA1A010000000E640D210A40C808C1ADB
:100CC0001557408800001F38804908000602C024DC
:100CD000180B80050B8CE02300A0200011000048B9
:100CE000848402205DF300CDC05000040401440060
:100CF000000800003004071020000000000400007D
:100D00000000080000404000104002000000000009
:100D100081000000011101000000000000400000FF
:100D2000000000808000002002047018006EFB7C30
:100D3000EEFFFFFDFF6FFB38EE07705200666F6F2E
:100D400064000000000000006170706C650000002D
:100D5000000000737465616B0000000000007761A3
:100D60007465720000000000000000000000000038
:100D70000000000000000000000000000000000073
:100D80000000000000000000000000000000000063
:100D9000000000000067616D6500000000000000B9
:100DA0000000000000000000000000000000000043
:100DB0000000000000000000000000000000000033
:100DC0000000000000000000000000000000000023
:100DD0000000000000000000000000000000000013
:100DE00000000000000000000000000000736C65BF
:100DF000657000000000000000000000000000001E
:100E000000000000000000000000000000000000E2
:100E100000000000000000000000000000000000D2
:100E200000000000000000000000000000000000C2
:100E300000000000000000000000000000000000B2
:100E40000000000000636C65616E0000000000009F
:100E50000000000000000000000000000000000092
:100E60000000000000000000000000000000000082
:100E70000000000000000000000000000000000072
:100E80000000000000000000000000000000000062
:100E900000000000000000000000000000646F631C
:100EA000746F7200000000000000000000000000ED
:100EB0000000000000000000000000000000000032
:100EC0000000000000000000000000000000000022
:100ED0000000000000000000000000000000000012
:100EE0000000000000000000000000000000000002
:100EF00000000000006469736369706C696E6500CE
:100F000000000000000000000000000000000000E1
:100F100000000000000000000000000000000000D1
:100F200000000000000000000000000000000000C1
:100F300000000000000000000000000000000000B1
:100F40000000000000000000000000000073746159
:100F5000747300000000000068756E676572000021
:100F600000000068617070696E65737300006865E9
:100F7000616C746800000000006469736369706CE0
:100F8000696E65007765696768740000000000613C
:100F90006765000000000000000000000000000085
:100FA000000000000073657474696E6773000000D0
:100FB000736F756E64000000000000000000000008
:100FC0000000000000000000000000000000000021
:100FD0000000000000000000000000000000000011
:100FE0000000000000000000000000000000000001
:100FF00000000000000000000000000000000000F1
:1010000000003E5B4F5B3E3E6B4F6B3E1C3E7C3EAA
:101010001C183C7E3C181C577D571C1C5E7F5E1CB8
:1010200000183C1800FFE7C3E7FF0018241800FF72
:10103000E7DBE7FF30483A060E2629792926407F6C
:10104000050507407F05253F5A3CE73C5A7F3E1C7B
:101050001C08081C1C3E7F14227F22145F5F005F67
:101060005F06097F017F006689956A606060606045
:1010700094A2FFA29408047E040810207E20100889
:10108000082A1C08081C2A08081E101010100C1E24
:101090000C1E0C30383E3830060E3E0E06000000A6
:1010A000000000005F00000007000700147F147FAD
:1010B00014242A7F2A1223130864623649562050CA
:1010C0000008070300001C2241000041221C002AE6
:1010D0001C7F1C2A08083E080800807030000808A1
:1010E000080808000060600020100804023E514912
:1010F000453E00427F400072494949462141494DE1
:10110000331814127F1027454545393C4A49493167
:1011100041211109073649494936464949291E00E6
:101120000014000000403400000008142241141490
:10113000141414004122140802015909063E415DAD
:10114000594E7C1211127C7F494949363E4141413A
:10115000227F4141413E7F494949417F09090901B7
:101160003E414151737F0808087F00417F410020C4
:1011700040413F017F081422417F404040407F02B0
:101180001C027F7F0408107F3E4141413E7F0909D8
:1011900009063E4151215E7F0919294626494949E0
:1011A0003203017F01033F4040403F1F2040201F8A
:1011B0003F4038403F63140814630304780403611C
:1011C00059494D43007F414141020408102000412C
:1011D00041417F04020102044040404040000307B7
:1011E000080020545478407F28444438384444440C
:1011F00028384444287F385454541800087E090283
:1012000018A4A49C787F0804047800447D40002042
:1012100040403D007F1028440000417F40007C0496
:101220007804787C080404783844444438FC182452
:10123000241818242418FC7C080404084854545426
:101240002404043F44243C4040207C1C2040201CBB
:101250003C4030403C44281028444C9090907C44C2
:1012600064544C44000836410000007700000041FF
:1012700036080002010204023C2623263C1EA1A1DE
:1012800061123A4040207A385454555921555579C5
:101290004122545478422155547840205455794085
:1012A0000C1E5272123955555559395454545939E6
:1012B000555454580000457C410002457D420001D0
:1012C000457C407D1211127DF0282528F07C545574
:1012D00045002054547C547C0A097F4932494949CD
:1012E000323A4444443A324A4848303A4141217AF9
:1012F0003A42402078009DA0A07D3D4242423D3DC3
:101300004040403D3C24FF2424487E4943662B2F27
:10131000FC2F2BFF0929F620C0887E090320545496
:1013200079410000447D413048484A3238404022EB
:101330007A007A0A0A727D0D19317D2629292F2813
:10134000262929292630484D402038080808080851
:10135000080808382F10C8ACBA2F102834FA00003B
:101360007B000008142A142222142A140855005560
:101370000055AA55AA55AAFF55FF55FF000000FFCA
:1013800000101010FF00141414FF001010FF00FFD5
:101390001010F010F0141414FC001414F700FF00E7
:1013A00000FF00FF1414F404FC141417101F101095
:1013B0001F101F1414141F00101010F00000000064
:1013C0001F101010101F10101010F010000000FF60
:1013D000101010101010101010FF10000000FF145B
:1013E0000000FF00FF00001F10170000FC04F414B1
:1013F000141710171414F404F40000FF00F7141469
:101400001414141414F700F7141414171410101FE4
:10141000101F141414F4141010F010F000001F101A
:101420001F0000001F14000000FC140000F010F06A
:101430001010FF10FF141414FF141010101F0000E0
:101440000000F010FFFFFFFFFFF0F0F0F0F0FFFFF3
:10145000FF0000000000FFFF0F0F0F0F0F38444484
:101460003844FC4A4A4A347E02020606027E027E64
:101470000263554941633844443C04407E201E20A9
:1014800006027E020299A5E7A5991C2A492A1C4C4E
:101490007201724C304A4D4D303048784830BC6251
:1014A0005A463D3E494949007E0101017E2A2A2AC9
:1014B0002A2A44445F444440514A444040444A51EB
:1014C000400000FF0103E080FF000008086B6B088C
:1014D0003612362436060F090F06000018180000D1
:1014E000001010003040FF0101001F01011E001913
:1014F0001D1712003C3C3C3C0000000000000000B6
:10150000002300260029000000000800020100005E
:10151000030407000000000000000001020408109E
:10152000204080010204081020010204081020005D
:10153000000000250028002B000404040404040417
:1015400004020202020202030303030303023C3308
:1015500011241FBECFEFD8E0DEBFCDBF24E0A2E84C
:10156000B3E001C01D92A93CB207E1F713E0A0E08F
:10157000B1E0EAE8FDE602C005900D92A238B1079D
:10158000D9F71AE0C8EADAE004C02197FE010E9408
:10159000AD33C73AD107C9F70E94411E0C94C33638
:1015A0000C940000CF92DF92EF92FF920F931F9363
:1015B000CF93DF936C017A018B01C0E0D0E0CE15B0
:1015C000DF0589F0D8016D918D01D601ED91FC9177
:1015D0000190F081E02DC6010995892B11F47E015F
:1015E00002C02196ECCFC701DF91CF911F910F91DF
:1015F000FF90EF90DF90CF900895833081F028F432
:10160000813099F08230A1F008958730A9F08830B8
:10161000B9F08430D1F4809180008F7D03C0809137
:1016200080008F7780938000089584B58F7702C003
:1016300084B58F7D84BD08958091B0008F7703C0FD
:101640008091B0008F7D8093B00008953FB7F894EB
:101650008091270490912804A0912904B0912A0434
:1016600026B5A89B05C02F3F19F00196A11DB11DFD
:101670003FBFBA2FA92F982F8827820F911DA11D38
:10168000B11DBC01CD0142E0660F771F881F991F75
:101690004A95D1F708950F931F93CF93DF93DC0101
:1016A00055968C915597823071F0833009F18130D5
:1016B00009F08CC01496ED91FC911597E41BF50B85
:1016C000E21BF30B20C01496ED91FC911597CF010E
:1016D000861B970BBC01615071091696ED91FC9128
:1016E0001797CF01841B950BAC01421B530B6EC0A7
:1016F0001696ED91FC911797CF01861B970BBC01B5
:1017000061507109FA0177FD1BC116968D919C916C
:101710001797681779070CF013C1F7FF04C02E0F55
:101720003F1FE0E0F0E014968D919C911597AF017A
:10173000420F531F841795071CF49C012E1B3F0B6F
:10174000121613060CF0FCC0CB0177FD079643E0A0
:10175000959587954A95E1F79695982F88279795BF
:101760008795E80FF91FED5DFE4F6770772781E0E1
:1017700090E001C0880F6A95EAF7482F0130110503
:1017800041F088F00230110509F0DAC02E0F3F1F3A
:1017900015C02E0F3F1FE217F30709F4D1C0808157
:1017A000842B8193F8CF80952E0F3F1FE217F3070C
:1017B00009F4C6C0908198239193F8CFE217F307FC
:1017C00009F4BEC0808184278193F8CF77FDB8C02B
:1017D00014968D919C911597681779070CF0B0C0FD
:1017E00057FF04C0240F351F40E050E016968D913E
:1017F0009C911797FA01E20FF31F8E179F071CF4B5
:101800009C01241B350B121613060CF099C0A22F55
:10181000842F86958695869590E8899F600D711D29
:101820001124FB01ED5DFE4F4770A9F198E0941B78
:10183000492F50E0EA01CD5BDC4F8881291790F4F5
:10184000421B51092FEF30E002C0359527954A958C
:10185000E2F782230130110541F068F002301105F2
:1018600089F06EC00130110519F42081822B0CC063
:101870000130110520F480952081822305C00230BB
:10188000110531F4208182278083A91708F458C0FC
:10189000A91BE058FF4FA83048F10230110559F458
:1018A000EF018A2F988190959883C058DF4F885018
:1018B0008830C0F730C081E00130110509F080E0C8
:1018C0008195EF019A2F8883C058DF4F9850983048
:1018D000D0F788EF8A0F86958695869590E8899F40
:1018E000E00DF11D1124E058FF4FA770AA2341F12C
:1018F000B0E0A55CBC4F8C910130110529F038F0A7
:1019000002301105D1F01CC09081892B18C0809540
:101910009081892314C088EF8A0F869586958695D5
:1019200090E8899FE00DF11D1124E058FF4FA7704A
:1019300039F0B0E0A55CBC4F8C9190818927808301
:10194000DF91CF911F910F9108950F931F93CF9324
:10195000DF93DC01FB0155968C915597823081F025
:10196000833019F1813051F514968D919C91159722
:10197000BC01641B750BAB0141505109BF0181C013
:1019800014966D917C911597CB018E1B9F0BFC01DA
:1019900016968D919C911797BC01641B750BAB013A
:1019A00041505109E21BF30B09C016966D917C91D1
:1019B00017976E1B7F0B621B730B63C057FD1CC117
:1019C00016968D919C911797481759070CF014C1E2
:1019D000F7FF04C02E0F3F1FE0E0F0E014968D915A
:1019E0009C911597BF01620F731F861797071CF410
:1019F0009C012E1B3F0B121613060CF0FDC0CA01F2
:101A000057FD079663E0959587956A95E1F796955A
:101A1000982F882797958795E80FF91FED5DFE4F62
:101A20004770552781E090E001C0880F4A95EAF79A
:101A3000482F0130110541F088F00230110509F0FE
:101A4000DBC02E0F3F1F15C02E0F3F1FE217F307FD
:101A500009F4D2C08081842B8193F8CF80952E0F1A
:101A60003F1FE217F30709F4C7C0908198239193B1
:101A7000F8CFE217F30709F4BFC080818427819370
:101A8000F8CF57FDB9C014968D919C9115974817C2
:101A900059070CF0B1C077FF04C0260F371F60E074
:101AA00070E016968D919C911797FB01E20FF31F42
:101AB0008E179F071CF49C01261B370B121613066A
:101AC0000CF09AC0A22F862F86958695869590E871
:101AD000899F400D511D1124FA01ED5DFE4F677085
:101AE000A9F198E0961B492F50E0EA01CD5BDC4F4D
:101AF0008881291790F4421B51092FEF30E002C072
:101B0000359527954A95E2F782230130110541F07A
:101B100068F00230110589F06FC00130110519F429
:101B20002081822B0CC00130110520F4809520818A
:101B3000822305C00230110531F420818227808381
:101B4000A91708F459C0A91BE058FF4FA83048F165
:101B50000230110559F4EF018A2F988190959883EE
:101B6000C058DF4F88508830C0F731C081E0013065
:101B7000110509F080E08195EF019A2F8883C05804
:101B8000DF4F98509830D0F788EF8A0F869586956A
:101B9000869560E8869FE00DF11D1124E058FF4F07
:101BA000A770AA2349F1B0E0A55CBC4F8C9101302D
:101BB000110529F038F002301105D9F01DC09081CF
:101BC000892B03C0809590818923808315C088EF7D
:101BD0008A0F86958695869570E8879FE00DF11DA2
:101BE0001124E058FF4FA77039F0B0E0A55CBC4F5E
:101BF0008C9190818927E9CFDF91CF911F910F912F
:101C00000895FC0177FD9AC0808591856817790752
:101C10000CF094C057FD92C08285938548175907F0
:101C20000CF08CC08589823009F07CC0848195815C
:101C3000DC01A61BB70BBD0161507109868197813C
:101C4000FC01E41BF50BAF01415051090AC0813082
:101C500041F484819581841B950BAB01BC016150DB
:101C600071092130310529F008F122303105E1F107
:101C70000895FA0157FD3796A3E0F595E795AA95E3
:101C8000E1F7F695FE2FEE27F795E7956E0F7F1F8C
:101C9000FB01ED5DFE4F4770552781E090E001C0EC
:101CA000880F4A95EAF79081892B3AC0FA0157FDCF
:101CB000379623E0F595E7952A95E1F7F695FE2FFF
:101CC000EE27F795E7956E0F7F1FFB01ED5DFE4F49
:101CD0004770552781E090E001C0880F4A95EAF7E8
:101CE0008095908189231CC0FA0157FD379683E0C7
:101CF000F595E7958A95E1F7F695FE2FEE27F7958E
:101D0000E7956E0F7F1FFB01ED5DFE4F4770552776
:101D100081E090E001C0880F4A95EAF79081892719
:101D200080830895833009F092CF86819781861B46
:101D3000970BBA01AC014150510993CF0895089512
:101D40002F923F924F925F926F927F928F929F92CB
:101D5000AF92BF92CF92DF92EF92FF920F931F93B9
:101D6000CF93DF93CDB7DEB76B970FB6F894DEBF96
:101D70000FBECDBF4C015A8349831F830E83FD8262
:101D8000EC82CB82DC0158964D915C9159974115BC
:101D9000510509F0A5C018968D919C911997681767
:101DA00079070CF05AC11A968D919C911B97E98185
:101DB000FA81E817F9070CF050C1D12CCB013B8117
:101DC000F6E03F9F800D911D1124181619060CF0A6
:101DD00044C1C60133E0880F991F3A95E1F7498164
:101DE0005A81840F951F181619060CF036C15796A4
:101DF0008C91811103C0203B08F02F5F55E0259F97
:101E0000900111247E876D875B01212CC901861BFF
:101E1000970B99878887A981BA811896BB87AA876B
:101E2000B5E02B1641F0E885F985EA0DFB1DE3507E
:101E3000F04F349001C0312C69807A80230130FE4C
:101E400012C0D401ED91FC91BB81B13031F404801A
:101E5000F581E02D2E813F8118C00684F785E02DA5
:101E6000EE80FF801CC0EC81FD812E813F81E21756
:101E7000F307E1F0D401ED91FC91BB81B13051F455
:101E80000480F581E02D2C813D81A301B501C401C1
:101E900009950CC00684F785E02DEC80FD80860155
:101EA0009601A2016D857E85C40109953694EFEFF8
:101EB0006E1A7E0A4C0C5D1C2A853B8562167306E1
:101EC00009F0BDCF23943FEFA31AB30A4D855E8579
:101ED0004C0D5D1D5E874D8756E02512A1CFBDC01C
:101EE000FA0134963491329785919491231BA7E09F
:101EF0002A9F800D911D1124FA01259134913A8B6E
:101F0000298BFC0125903490FC013296349138875E
:101F1000319644914C873196E491FC013596A49119
:101F2000319684915B81523050F06A2E0A2E000C5B
:101F30007708E82F082E000CFF0BFB87EA87FB8150
:101F4000CF2ED12C6C9C90016D9C300D7C9C300D63
:101F50001124A901460F571F588B4F871C82A12CB3
:101F6000EA2FAA0FFF0B3B016E0E7F1E5885650FEF
:101F7000711DDB01AE0FBF1FBF8BAE8BE981FA81F4
:101F8000E80FF11D87FDFA95F98FE88F9C85A9165A
:101F900008F063C08A2D90E04A855B85480F591F81
:101FA0004C9D90014D9D300D5C9D300D1124A981FB
:101FB000BA81A20FB31FBE87AD877B8E6A8E4F8416
:101FC0005888BC81B619BB8BE88DF98DE80FF91FD5
:101FD000FD8BEC8B8B89FA8D8F0F2A8D3B8D4E8973
:101FE0005F892417350799F1877041F4C101019683
:101FF000E989FA89E20DF31DB4901C01B7FE1EC0F9
:10200000D401ED91FC91BB81B13061F40480F58184
:10201000E02D2E813F814C895D896A8D7B8DC401C5
:1020200009950CC00684F785E02DEE80FF808601BF
:1020300096014D855E85B201C4010995BB0CEA8D00
:10204000FB8D3196FB8FEA8F4C0C5D1CC3CF5C81FE
:102050008885580F5C83A39499CF6B960FB6F8943C
:10206000DEBF0FBECDBFDF91CF911F910F91FF90CB
:10207000EF90DF90CF90BF90AF909F908F907F9028
:102080006F905F904F903F902F900895AF92BF92C6
:10209000CF92EF92FF920F931F93CF93DF93EC01B8
:1020A000262F888D998D009709F042C06A3069F417
:1020B0002C898E859F8538E0239F800D911D1124EA
:1020C0009F878E871D861C86ACC06D3009F4A9C021
:1020D0008E898823C1F03C898C859D8546E0349F9C
:1020E000800D911D112448855985841795075CF052
:1020F0001D861C868E859F85E8E03E9F800D911D84
:1021000011249F878E87EA88FB88088919894E8564
:102110005F856C857D85CC88CE010E94A00E2C89C0
:102120008C859D85F6E02F9F800D911D112441C067
:102130006A3079F41D861C862C89FC013696E49160
:102140008E859F852E9F800D911D11249F878E87E0
:1021500068C06D3009F465C0AC014C5F5F4FFA0197
:102160003491631708F45DC03196E491E61708F4E2
:1021700058C0FA014491362F341BFC013296A590C9
:10218000B490F7E03F9FA00CB11C1124F5013296EA
:1021900034913196E491332311F0E1110DC0F50132
:1021A0003496E4912C898C859D85E29F800D911D4C
:1021B00011249D878C8735C0F501359644915E8941
:1021C000552311F16C89E32FF0E0E40FF11D47FD79
:1021D000FA956E9FD0016F9FB00D11244C855D85DF
:1021E0004A0F5B1FE885F9854E175F076CF01D8667
:1021F0001C86FC013696E4918E859F856E9F800D2E
:10220000911D11249F878E87EA88FB880889198988
:102210004E855F856C857D85CC88CE010E94A00EA1
:10222000BECF81E090E0DF91CF911F910F91FF90A1
:10223000EF90CF90BF90AF900895EF92FF920F93E1
:102240001F93DC01ED91FC9111971A960D911C9151
:102250001B9718962D913C9119970684F785E02DD0
:102260007B0140E050E060E070E009951F910F9124
:10227000FF90EF9008956F927F928F929F92AF920E
:10228000BF92CF92DF92EF92FF920F931F93CF9363
:10229000DF936C015A014801EB013B01620E731E92
:1022A000C615D70574F4D601ED91FC910084F18533
:1022B000E02D87019401A501BE01C6010995219673
:1022C000EFCFDF91CF911F910F91FF90EF90DF90B3
:1022D000CF90BF90AF909F908F907F906F90089518
:1022E000EF92FF920F931F93DC01ED91FC91260F6B
:1022F000371F215031090680F781E02D78018A01CE
:1023000009951F910F91FF90EF900895EF92FF9222
:102310000F931F937801DC01ED91FC91240F351F81
:102320008901015011090680F781E02D9B01099573
:102330001F910F91FF90EF9008956F927F928F926F
:102340009F92AF92BF92CF92DF92EF92FF920F9344
:102350001F93CF93DF93EC014B015A0169013801C0
:10236000E881F9810284F385E02D87010995E881F0
:10237000F981A501460D571D415051090284F3858D
:10238000E02D9601B401CE010995E881F981008420
:10239000F185E02D9301A501B401CE010995E881F5
:1023A000F981C80CD91CB601615071090084F1850E
:1023B000E02D9301A501CE010995DF91CF911F91E9
:1023C0000F91FF90EF90DF90CF90BF90AF909F90D4
:1023D0008F907F906F9008952F923F924F925F92CF
:1023E0006F927F928F929F92AF92BF92CF92DF9225
:1023F000EF92FF920F931F93CF93DF9300D01F9222
:10240000CDB7DEB74C017B836A836A01590117019E
:102410009801241B350B37FF03C0319521953109F5
:10242000C5014A815B81841B950B97FF03C0919581
:102430008195910951E059838217930714F019820D
:102440000BC09A2D8B2D5801092F182F9A818B8143
:10245000DB82CA82C92ED82E8A819B81A816B90632
:102460005CF49C2D8D2D6801092F182F9A818B818A
:10247000BB82AA82A92EB82E2501AA81BB814A1A45
:102480005B0A38016C187D0877FE03C07194619473
:102490007108720157FE03C0BFEFEB1AFB0AF594F7
:1024A000E794C016D1061CF00FEF1FEF1FC001E02C
:1024B00010E01CC0D401ED91FC91B9810480F5813C
:1024C000E02D9101BB23C1F04A815B81B601C401BB
:1024D0000995E618F708F7FE04C0C00ED11EE40CFB
:1024E000F51CEA81FB813196FB83EA834A815B819B
:1024F000A416B506FCF604C0A6016A817B81E7CF6D
:102500000F900F900F90DF91CF911F910F91FF903F
:10251000EF90DF90CF90BF90AF909F908F907F9083
:102520006F905F904F903F902F90089585ED80932E
:10253000BC008091BC0084FDFCCF10925104089532
:102540004091FD03262F30E0240F311D213231054B
:10255000DCF4209151042430C9F4FC0180E090E0C7
:10256000861758F43091FD032191DC01A552BC4F30
:10257000A30FB11D2C930196F3CF8091FD03680F3B
:102580006093FD0380E0089581E0089582E008955E
:10259000089581E090E03091830320918203321707
:1025A00010F480E090E091958195910908958091D3
:1025B000830390918203891730F48F5F80938303A4
:1025C00080E090E008958FEF9FEF0895809182035F
:1025D00090E020918303821B91090895CF92DF92AE
:1025E000EF92FF920F931F93CF93DF937C01262FDF
:1025F000972F8A0180915204882391F0C62FD72FFC
:102600006E01C40ED51ECC15DD0571F06991D701A0
:10261000ED91FC910190F081E02DC7010995F3CF78
:10262000642F822F0E94A012C801DF91CF911F91C9
:102630000F91FF90EF90DF90CF900895CF93DF93AD
:102640001F92CDB7DEB76983209152042223D1F0C7
:1026500020917404203240F021E030E0FC0133830B
:10266000228380E090E015C080915304E82FF0E0D1
:10267000EC5AFB4F998190838F5F80935304809332
:10268000740405C061E0CE0101960E94A01281E0B1
:1026900090E00F90DF91CF9108950E94F635CF938F
:1026A000DF9300D000D0CDB7DEB76115710581058D
:1026B000910579F09B01AC0169833A834B835C837C
:1026C0000E94493629813A814B815C810E946036A3
:1026D00003C060E070E0CB010F900F900F900F905F
:1026E000DF91CF910895CF92DF92EF92FF920F93F7
:1026F0001F93621773078407950784F489019A0171
:102700006B017C01C901B8016C197D098E099F0913
:102710000E944F136C0D7D1D8E1D9F1D1F910F91EB
:10272000FF90EF90DF90CF900895CF93DF93282F05
:1027300030E0F901E95FFA4E8491F901E55EFA4E65
:10274000D491F901E75CFA4EC491CC2391F0811148
:102750000E94FD0AEC2FF0E0EE0FFF1FE350FB4E4E
:10276000A591B491EC91ED2381E090E021F480E01B
:1027700002C080E090E0DF91CF9108951F93CF9346
:10278000DF93282F30E0F901E95FFA4E8491F901D7
:10279000E55EFA4ED491F901E75CFA4EC491CC2380
:1027A000C9F0162F81110E94FD0AEC2FF0E0EE0F08
:1027B000FF1FE15DFA4EA591B4918FB7F894111106
:1027C00005C09C91ED2FE095E92302C0EC91ED2B23
:1027D000EC938FBFDF91CF911F91089590912201CB
:1027E000981324C0EDE4F5E1E4919FEF909322016A
:1027F000E130B9F098F0E230C9F4909170009D7F1B
:102800009093700091E09093B0009091B100987F08
:1028100094609093B1001092B30008C010926E00C3
:1028200005C090916F009D7F90936F0060E00C94C5
:10283000BE131F920F920FB60F9211242F933F9346
:102840004F935F936F937F938F939F93AF93BF93B8
:10285000EF93FF938091780490917904A0917A048A
:10286000B0917B04892B8A2B8B2B51F180917504BD
:10287000E0917604F091770490818927808380919C
:10288000780490917904A0917A04B0917B04181691
:1028900019061A061B06C4F48091780490917904F5
:1028A000A0917A04B0917B040197A109B1098093AA
:1028B000780490937904A0937A04B0937B0404C0C5
:1028C000809122010E94EE13FF91EF91BF91AF9191
:1028D0009F918F917F916F915F914F913F912F9138
:1028E0000F900FBE0F901F901895CF93DF9390E03D
:1028F000FC01E55EFA4E2491FC01E75CFA4E8491FE
:10290000882361F190E0880F991FFC01E856F94F88
:10291000C591D491FC01E15DFA4EA591B49161118C
:1029200009C09FB7F8948881209582238883EC9111
:102930002E230BC0623061F49FB7F8943881822F48
:10294000809583238883EC912E2B2C939FBF06C008
:102950008FB7F894E8812E2B28838FBFDF91CF911A
:1029600008958F929F92AF92BF92CF92DF92EF9293
:10297000FF926B017C010E94260B4B015C01C1148C
:10298000D104E104F104F1F00E94260BDC01CB013B
:1029900088199909AA09BB09883E9340A105B10588
:1029A00070F321E0C21AD108E108F10888EE880E20
:1029B00083E0981EA11CB11CC114D104E104F104F0
:1029C00019F7DDCFFF90EF90DF90CF90BF90AF90E1
:1029D0009F908F9008951F920F920FB60F9211241F
:1029E0002F933F938F939F93AF93BF938091230433
:1029F00090912404A0912504B091260430912204E2
:102A000023E0230F2D3720F40196A11DB11D05C031
:102A100026E8230F0296A11DB11D20932204809366
:102A2000230490932404A0932504B093260480915A
:102A3000270490912804A0912904B0912A040196BA
:102A4000A11DB11D8093270490932804A09329040D
:102A5000B0932A04BF91AF919F918F913F912F9195
:102A60000F900FBE0F901F9018951F920F920FB6E8
:102A70000F9211242F933F934F935F936F937F9304
:102A80008F939F93AF93BF93EF93FF938091B90080
:102A9000887F803609F49CC068F5883209F45BC0F1
:102AA00090F4803109F454C038F4882309F4F6C056
:102AB000883009F44DC0F6C0883109F44CC080322A
:102AC00009F45DC0EFC0803409F468C048F4803375
:102AD00009F455C0883309F0E5C080934F04D8C08D
:102AE000803509F44FC0883509F45DC0883409F099
:102AF000D9C0D6C0883909F4C7C0A8F4883709F40A
:102B000067C038F4883609F463C0803709F460C0C0
:102B1000C9C0883809F4B8C0803909F45FC080386A
:102B200009F0C0C05BC0803B09F486C038F4803A2D
:102B300009F466C0883A09F47FC0B4C0803C09F447
:102B4000A7C0883C09F4A4C0883B09F48AC0AAC085
:102B500080912C0410C090914E0480914D049817E0
:102B600070F5E0914E0481E08E0F80934E04F0E00A
:102B7000E35DFB4F80818093BB0085EC86C0809332
:102B80004F048EC0E0914E0481E08E0F80934E047E
:102B90008091BB00F0E0E35DFB4F808390914E0499
:102BA00080914D046EC0E0914E0481E08E0F8093C1
:102BB0004E048091BB00F0E0E35DFB4F8083809189
:102BC000500481116DC081E080932B0484EA61C0C0
:102BD00083E08093510410922104CFCF809121048F
:102BE000803208F051C0E091210481E08E0F809383
:102BF00021048091BB00F0E0EF5FFB4F8083BDCFED
:102C000085EC8093BC0010925104809121048032A5
:102C100030F4E0912104F0E0EF5FFB4F108260910F
:102C2000210470E0E091FF03F091000481E094E062
:102C300009951092210436C084E0809351041092CB
:102C4000FE031092FD03E091FB03F091FC03099554
:102C50008091FD03811105C081E08093FD031092F6
:102C6000DB03E091FE0381E08E0F8093FE03F0E032
:102C7000E552FC4F80818093BB009091FE038091D0
:102C8000FD03981708F479CF85E88093BC000AC04B
:102C900085EC8093BC001092510404C010924F0444
:102CA0000E949612FF91EF91BF91AF919F918F91EA
:102CB0007F916F915F914F913F912F910F900FBE38
:102CC0000F901F901895E4E8F3E080E090E02191E8
:102CD0003191121613060CF4019623E0EA38F2073C
:102CE000B1F70895EF92FF920F931F9320E030E029
:102CF00040E452E40E94843520E030E048EC52E4A5
:102D00000E9425340E949734EE24E394F12C03E0D2
:102D100010E09B0143E150E068E470E08CE894E04F
:102D20000E943B111F910F91FF90EF900895209109
:102D300074049091BA04213208F04AC08091510481
:102D40008111FCCF32E03093510431E030935004D4
:102D50003FEF30934F0410924E0420934D04A4E5AE
:102D6000B4E04DE254E0FA013E2F341B321718F460
:102D70003D913193F9CF10922C0420912C04990F9E
:102D8000922B90932C0490912B04913061F410922B
:102D90002B0490912C049093BB009091BC0093FD68
:102DA000F8CF95EC01C095EE9093BC009091510442
:102DB0009230E1F390914F049F3F79F080914F045E
:102DC000803241F080914F04803331F084E005C0BF
:102DD00081E003C082E001C083E0109253041092AE
:102DE00074041092520408959091AD04992339F01F
:102DF0008EBD00000DB407FEFDCF8EB5089528E00E
:102E000030E040E8E091B004F091B104508190913D
:102E1000B704909595239083E091AE04F091AF04B0
:102E20009091B604542F582319F05081952B03C06C
:102E30005081909595239083E091B004F091B10476
:102E400050819091B704952B90834695215031097C
:102E5000C9F6089580E092E0E3E2F1E0DF019C0131
:102E60001D9221503040E1F708953F924F925F92BA
:102E70006F927F928F929F92AF92BF92CF92DF928A
:102E8000EF92FF920F931F93CF93DF9300D000D068
:102E9000CDB7DEB720912201263021F02F3F09F077
:102EA0002CC204C0EDE4F5E1349076C026E0209316
:102EB0002201EDE4F5E1E491EF3F09F41EC2E130B7
:102EC00011F1E23009F443C0E11165C014BC15BC36
:102ED00024B5226024BD25B5216025BDEFE3F5E1D1
:102EE000E491F0E0EE0FFF1FE15DFA4E2591349181
:102EF0003093C0042093BF04E1E2F5E1E491E09354
:102F0000BE04312C4BC010928000109281002091A1
:102F1000810028602093810020918100216020930E
:102F20008100EFE3F5E1E491F0E0EE0FFF1FE15DDA
:102F3000FA4E259134913093BD042093BC04E1E214
:102F4000F5E1E491E093BB043324339427C010925D
:102F5000B0001092B1002091B00022602093B00028
:102F60002091B10021602093B100EFE3F5E1E491FD
:102F7000F0E0EE0FFF1FE15DFA4E259134913093A2
:102F8000770420937604E1E2F5E1E491E09375049F
:102F9000B2E03B2E03C03E2E37FCAFC12A013B01FD
:102FA0008C0161E086E00E9475144801A12CB12CCF
:102FB000832D8D7F09F0BBC060E072E18AE790E06D
:102FC000A50194010E94603629833A834B835C8378
:102FD00069017A0121E0C21AD108E108F1088FEFF6
:102FE000C816D104E104F10409F008F44CC060E40F
:102FF00072E48FE090E0A50194010E9460366901BF
:103000007A01E1E0CE1AD108E108F108F2E03F12BE
:1030100020C02FEFC216D104E104F10409F008F436
:103020006AC160E970ED83E090E0A50194010E941F
:10303000603669017A0181E0C81AD108E108F10817
:10304000EFEFCE16D104E104F10409F0D0F583E0EE
:1030500067C0FFEFCF16D104E104F104B1F0A8F08E
:1030600068E478EE81E090E0A50194010E9460366A
:1030700069017A0181E0C81AD108E108F10833201A
:1030800009F4DFC02FC181E001C082E03320A1F04C
:1030900047C089819A81AB81BC812AE0B595A7950B
:1030A000979587952A95D1F76C017D0121E0C21A89
:1030B000D108E108F10885E095B5987F892B85BD99
:1030C0006FC068E478EE81E090E0A50194010E9471
:1030D000603669017A01F1E0CF1AD108E108F10800
:1030E0002FEFC216D104E104F10409F008F4A7C0DF
:1030F00064E274EF80E090E0A50194010E946036E4
:1031000069017A01E1E0CE1AD108E108F108FFEF88
:10311000CF16D104E104F10411F008F0B4C085E049
:103120009091B100987F892B8093B10039C060E005
:1031300072E18AE790E0A50194010E94603669017E
:103140007A0181E0C81AD108E108F108C114D1045C
:10315000E1E0EE06F10488F068E478EE81E090E0CA
:10316000A50194010E94603669017A01F1E0CF1A4D
:10317000D108E108F10893E001C091E021E03212AA
:103180000FC080918100887F892B8093810041143A
:1031900051046104710449F42FEF3FEFA9012DC0E0
:1031A000411451046104710471F0D801AA0FBB1FCE
:1031B000A30192010E947F3628EE33E040E050E008
:1031C0000E94923603C02FEF3FEFA90181E038162D
:1031D000A1F0E2E03E1619F131108FC0C7BC209378
:1031E000C5043093C6044093C7045093C80480912B
:1031F0006E00826080936E0080C0D0928900C09281
:1032000088002093C1043093C2044093C3045093B8
:10321000C40480916F00826080936F006EC0C09282
:10322000B300209378043093790440937A04509348
:103230007B04809170008260809370005EC084E0A7
:103240006FCFFFEFCF16D104E104F104D1F0C8F045
:1032500062E17AE780E090E0A50194010E94603687
:1032600069017A0181E0C81AD108E108F108EFEF9D
:10327000CE16D104E104F10411F008F00ACF84E085
:103280001BCF83E019CF62E17AE780E090E0A501EF
:1032900094010E94603669017A0181E0C81AD10860
:1032A000E108F108EFEFCE16D104E104F104C1F01A
:1032B000B8F089819A81AB81BC814AE0B595A79528
:1032C000979587954A95D1F76C017D0121E0C21A47
:1032D000D108E108F108332009F4EDCE87E020CFD2
:1032E00086E0D4CEFFEFCF16D104E104F10409F05B
:1032F00050F684E0CBCE82E013CF0F900F900F906A
:103300000F90DF91CF911F910F91FF90EF90DF9081
:10331000CF90BF90AF909F908F907F906F905F9075
:103320004F903F900895CF93C82F8091A8048F3F6E
:1033300059F1E091B204F091B30480819091B80406
:10334000982B9083E091B404F091B5042081909182
:10335000B904909592239083E091B204F091B30464
:1033600020819091B8049095922390838C2F0E9495
:10337000F416E091B204F091B30490818091B80406
:10338000892B8083CF9108958091A60491E090933A
:1033900052048093BA04109253041092740460E0B3
:1033A0008CE794E00E941E136C2F8CE794E00E943F
:1033B0001E13CF910C949716EF92FF920F931F93C9
:1033C000CF93DF9381E20E94931980E00E949319CA
:1033D0008FE70E94931982E20E94931980E00E9475
:1033E000931983E00E9493198091A8048F3F79F18B
:1033F000E091B204F091B30490818091B804892BDC
:103400008083E091B404F091B50490818091B90477
:10341000892B8083E091B204F091B3049081809174
:10342000B804809589238083C3E2D1E089910E940A
:10343000F41683E0C332D807C9F7E091B204F091E3
:10344000B30490818091B804892B808330C0F090C0
:10345000B8008CE08093B800C3E2D1E0EE24E3949E
:103460008091A604E09252048093BA04109253040F
:103470001092740460E48CE794E00E941E1300E054
:1034800010E0FE01E00FF11F60818CE794E00E94E4
:103490001E130F5F1F4F0031110599F70E949716F9
:1034A000609683E0C332D807D9F6F092B800DF9176
:1034B000CF911F910F91FF90EF9008952F923F921F
:1034C0005F926F927F928F929F92AF92BF92CF92B4
:1034D000DF92EF92FF920F931F93CF93DF9300D071
:1034E00000D000D0CDB7DEB73C016B015A017901A5
:1034F0001801C901079697FD07969C0193E0359541
:1035000027959A95E1F73A832983812C912C00E045
:1035100010E0021513050CF043C01E821D82D80175
:10352000AC0DBD1DBC83AB83ED81FE81EE15FF05A7
:1035300084F58D819E8187709927892B11F0550C18
:103540000EC0ED81FE81F7FD379683E0F595E79596
:103550008A95E1F7E80DF91DEA0DFB1D549057FE21
:1035600012C0E0918C04F0918D040480F581E02D6F
:1035700021E030E04B815C816D817E81660D771D9D
:103580008CE894E009958D819E8101969E838D83C0
:10359000CBCF0F5F1F4F29813A81820E931EB9CF87
:1035A00026960FB6F894DEBF0FBECDBFDF91CF9148
:1035B0001F910F91FF90EF90DF90CF90BF90AF9051
:1035C0009F908F907F906F905F903F902F90089585
:1035D0000F931F93CF93DF938C01C0E0D0E0F801ED
:1035E000EC0FFD1F6491662371F0E0918C04F09163
:1035F0008D040190F081E02D8CE894E00995892BF1
:1036000011F02196ECCFCE01DF91CF911F910F9158
:103610000895009769F0FC0101900020E9F73197C7
:10362000AF01481B590BBC018CE894E00C94D20A02
:1036300080E090E00895CF93DF930E94E81AEC01B8
:1036400083E793E00E94091B8C0F9D1FDF91CF91B0
:1036500008958F929F92AF92BF920F931F93CF9333
:10366000DF93CDB7DEB7A1970FB6F894DEBF0FBEDC
:10367000CDBF19A2423008F44AE08E010F5D1F4F02
:10368000842E912CA12CB12CA50194010E9492367C
:10369000E62FB901CA0101501109EA3014F4E05DC6
:1036A00001C0E95CD801EC93232B242B252B61F777
:1036B000C8010E94091BA1960FB6F894DEBF0FBE89
:1036C000CDBFDF91CF911F910F91BF90AF909F9091
:1036D0008F900895E0918C04F0918D040190F08119
:1036E000E02D682F8CE894E009948F929F92AF921E
:1036F000BF92CF92DF92EF92FF92CF93DF936B0155
:103700007C019B01AC010E94F135882319F086E70A
:1037100093E027C046015701E894B7F82FEF3FEF39
:103720004FE75FE7C501B4010E94F13581110DC07B
:103730002FEF3FEF4FE75FE7C501B4010E94203450
:1037400018161CF48AE793E00CC02FEF3FEF4FE709
:103750005FE4C701B6010E947F35181674F48EE746
:1037600093E0DF91CF91FF90EF90DF90CF90BF90EB
:10377000AF909F908F900C94091B2FEF3FEF4FE776
:103780005FECC701B6010E94203487FDE8CF20E03E
:1037900030E0A901C701B6010E94203487FF09C0AB
:1037A0008DE20E946A1BEC01F7FAF094F7F8F094AE
:1037B00002C0C0E0D0E02DEC3CEC4CE45DE3C7017E
:1037C000B6010E94B4334B015C010E949E346B0130
:1037D0007C010E94CD349B01AC01C501B4010E9463
:1037E000B3334B015C014AE0C701B6010E94291BBB
:1037F000C80FD91F8EE20E946A1BC80FD91F20E094
:1038000030E040E251E4C501B4010E9484350E94D9
:103810009E3480E090E04AE00E94291B8C0F9D1F9F
:10382000DF91CF91FF90EF90DF90CF90BF90AF905E
:103830009F908F9008952F923F924F925F926F9238
:103840007F928F929F92AF92BF92CF92DF92EF9230
:10385000FF920F931F93CF93DF93EC0181E090E0F1
:103860007C01EC1AFD0A442455244C1A5D0A440CD0
:10387000551CE0918C04F0918D04AE01495C5F4FC2
:103880000480F581E02D21E030E060E570E08CE817
:1038900094E00995E0918C04F0918D0447E350E0A9
:1038A0004C1B5D0B0480F581E02D21E030E060E5EC
:1038B00070E08CE894E00995E0918C04F0918D041F
:1038C000BE01605B7F4F0480F581E02D21E030E098
:1038D00047E350E08CE894E00995E0918C04F09186
:1038E0008D0460E570E06C1B7D0B0480F581E02D9C
:1038F00021E030E047E350E08CE894E0099500E0F7
:1039000010E066246394712C47E3242E312C0C17AD
:103910001D070CF0A0C0F7FC06C0219782E0480EFE
:10392000511CE40CF51C0F5F1F4F82E0680E711CE8
:10393000E60CF71C480180E5880E911CE0918C0490
:10394000F0918D040480F581E02D21E030E06E01DE
:1039500087E3C80ED11CA601B4018CE894E0099558
:1039600080E5A82EB12CA01AB10AE0918C04F09148
:103970008D040480F581E02D21E030E0A601B50141
:103980008CE894E00995E0918C04F0918D0404801A
:10399000F581E02D21E030E06101CC1ADD0AA601BD
:1039A000B4018CE894E00995E0918C04F0918D04C9
:1039B0000480F581E02D21E030E0A601B5018CE81E
:1039C00094E00995680187E3C80ED11CE0918C044E
:1039D000F0918D040480F581E02D21E030E0A60116
:1039E0005E0180E5A80EB11CB5018CE894E0099554
:1039F000E0918C04F0918D040480F581E02D21E0AC
:103A000030E0A60190E5C92ED12CCC1ADD0AB60112
:103A10008CE894E009954101801A910AE0918C04A8
:103A2000F0918D040480F581E02D21E030E0A401C7
:103A3000B5018CE894E00995E0918C04F0918D0437
:103A40000480F581E02D21E030E0A401B6018CE88E
:103A500094E009955CCFDF91CF911F910F91FF907A
:103A6000EF90DF90CF90BF90AF909F908F907F901E
:103A70006F905F904F903F902F9008952F923F92BC
:103A80004F925F926F927F928F929F92AF92BF926E
:103A9000CF92DF92EF92FF920F931F93CF93DF931A
:103AA000CDB7DEB728970FB6F894DEBF0FBECDBFF7
:103AB0005C011B0158874F834901E0918C04F09110
:103AC0008D049A01220F331F2F5F3F4FAB018F816F
:103AD0009885481B590B0084F185E02D8401B501C0
:103AE0008CE894E0099581E090E03C01AF81B885D5
:103AF0006A1A7B0ACD019195819591092C01440C9C
:103B0000551CE12CF12CCC24C394D12CAF81B88569
:103B1000EA16FB060CF06EC077FC0AC0EF81F88550
:103B20003197F887EF83F2E04F0E511C640C751C3F
:103B30002FEFE21AF20A32E0C30ED11C6C0C7D1C8E
:103B40008F819885880F991FAC014F5F5F4F5C8311
:103B50004B83E0918C04F0918D04B7016A0D7B1DBD
:103B60000084F185E02D84019A01C101AF81B885FF
:103B70008A1B9B0B9A838983AC018CE894E009959E
:103B8000F101EE19FF09FE83ED83E0918C04F091C1
:103B90008D040084F185E02D96014D815E816F8159
:103BA00078856A0D7B1D8CE894E00995E0918C0482
:103BB000F0918D04B5016E197F090084F185E02D27
:103BC0002B813C8149815A818CE894E00995E091F0
:103BD0008C04F0918D040084F185E02D96014D81D7
:103BE0005E81B5018F819885681B790B8CE894E024
:103BF00009958CCF28960FB6F894DEBF0FBECDBFC7
:103C0000DF91CF911F910F91FF90EF90DF90CF90B8
:103C1000BF90AF909F908F907F906F905F904F90EC
:103C20003F902F900895CF92DF92EF92FF92CF9323
:103C3000DF936C01990FEE08FF08F7FE17C08DE2C5
:103C40000E946A1BEC0166277727CB016C197D095E
:103C50008E099F094AE00E94291B8C0F9D1FDF914E
:103C6000CF91FF90EF90DF90CF9008954AE0C70189
:103C7000B601DF91CF91FF90EF90DF90CF900C9441
:103C8000291BCF93DF93CDB7DEB76A970FB6F894B1
:103C9000DEBF0FBECDBF789484B5826084BD84B58D
:103CA000816084BD85B5826085BD85B5816085BD37
:103CB00080916E00816080936E00109281008091EF
:103CC0008100826080938100809181008160809377
:103CD0008100809180008160809380008091B1009C
:103CE00084608093B1008091B00081608093B000C7
:103CF00080917A00846080937A0080917A0082605B
:103D000080937A0080917A00816080937A0080911C
:103D10007A00806880937A001092C10060E089E0A8
:103D20000E94751460E088E00E94751460E087E0EE
:103D30000E94751461E086E00E94751461E08DE0D8
:103D40000E94751480E480937C0080917A008064E6
:103D500080937A0080917A0086FDFCCF6091780094
:103D60008091790070E0782B072E000C880B990B5E
:103D7000611571058105910511F00E944E3682E0B2
:103D80008093A7048CE38093A6048091A8048F3FBE
:103D900009F4BDC061E08091AA040E94751461E03D
:103DA0008091AC040E9475148091AC04082E000C24
:103DB000990BFC01E75CFA4EE491F0E0EE0FFF1F77
:103DC000E15DFA4E259134913093B3042093B2040F
:103DD000FC01E55EFA4EE491E093B8048091AA04F8
:103DE000082E000C990BFC01E75CFA4EE491F0E020
:103DF000EE0FFF1FE15DFA4E259134913093B5042B
:103E00002093B404FC01E55EFA4EE491E093B9041A
:103E10008091AD0481113EC061E08091A8040E94B0
:103E2000751461E08091A9040E9475148091A90421
:103E3000082E000C990BFC01E75CFA4EE491F0E0CF
:103E4000EE0FFF1FE15DFA4E259134913093B104DE
:103E50002093B004FC01E55EFA4EE491E093B704D0
:103E60008091A804082E000C990BFC01E75CFA4E27
:103E7000E491F0E0EE0FFF1FE15DFA4E25913491E1
:103E80003093AF042093AE04FC01E55EFA4EE4915A
:103E9000E093B6048091AD04882309F45FC01FB796
:103EA000F89480918A03811127C0E3E4F5E18491BD
:103EB000E5E2F5E19491E82FF0E0EE0FFF1FE85600
:103EC000F94FA591B491EC91E92321F461E08AE0E6
:103ED0000E94BE1361E08AE00E9475148CB5806177
:103EE0008CBD8CB580648CBD61E08DE00E94751442
:103EF00061E08BE00E94751480918A038F5F80934C
:103F00008A031FBF80E58CBD81E08DBD27C0109264
:103F1000830310928203109253041092740410923F
:103F2000510481E08093500410922B0461E082E1FF
:103F30000E94BE1361E083E10E94BE138091B9002C
:103F40008E7F8093B9008091B9008D7F8093B900F6
:103F500088E48093B80085E48093BC008091AB0432
:103F600087FD1EC061E00E94751461E08091AB0482
:103F70000E94BE1361E070E080E090E00E94B11406
:103F800060E08091AB040E94BE136AE070E080E0C4
:103F900090E00E94B11461E08091AB040E94BE13D6
:103FA0008EEA0E94931985ED0E94931980E80E9481
:103FB000931988EA0E9493198FE10E94931983ED67
:103FC0000E94931980E00E94931980E40E94931943
:103FD0008DE80E94931984E10E94931980E20E9467
:103FE000931980E00E94931981EA0E94931988EC4A
:103FF0000E9493198AED0E94931982E00E949319FE
:1040000081E80E9493198FE80E94931989ED0E941C
:10401000931981EF0E9493198BED0E94931980E40C
:104020000E94931984EA0E94931986EA0E949319C8
:104030008EE20E9493198FEA0E9493190E942A1718
:1040400081E090E090939F0480939E0490939D0460
:1040500080939C048EEC98E00E94E81A0AE110E03C
:1040600020E330E042E358E068E170E08FE090E068
:104070000E945E1A08E210E020E530E042EA56E0D5
:1040800068E170E080E390E00E945E1A0E94DC1913
:1040900048EC50E060E070E084EF91E00E9435175A
:1040A00068EC70E080E090E00E94B11448EC50E0D1
:1040B00060E070E088EE93E00E94351760E971E0FF
:1040C00080E090E00E94B11448EC50E060E070E0C5
:1040D0008CEB92E00E94351768EC70E080E090E095
:1040E0000E94B11448EC50E060E070E08CE494E091
:1040F0000E94351768E978E080E090E00E94B114F2
:104100000E942A17B3E02B2E312C412C512CCC24A9
:10411000C394D12CA4E26A2E712C89E00E949513DD
:104120009093DA038093D90388E00E9495139093CB
:10413000D8038093D70387E00E9495139093D6030A
:104140008093D5038091D40381110C949C3280918B
:10415000D303882309F478C027E137EB41E558E31E
:1041600060911E0170911F018091200190912101A9
:104170000E94B33360931E0170931F01809320014E
:104180009093210127E137EB41E558E36091CF039C
:104190007091D0038091D1039091D2030E94B433E7
:1041A0006093CF037093D0038093D1039093D20395
:1041B00027E137EB41ED58E360911A0170911B0143
:1041C00080911C0190911D010E94B3334B015C0151
:1041D00020E030E0A9010E947F35181644F4809257
:1041E0001A0190921B01A0921C01B0921D010E9425
:1041F0006316BC01990F880B990B0E94CF3427E1FD
:1042000037EB41ED58E30E94843527E137EB41E578
:1042100058E30E94B4339B01AC0160911601709188
:10422000170180911801909119010E94B333609396
:10423000160170931701809318019093190127E1DB
:1042400037EB41ED58E377C02FE632E143E859E31D
:1042500060911E0170911F018091200190912101B8
:104260000E94B33360931E0170931F01809320015D
:10427000909321012FE632E143E859E36091CF03A7
:104280007091D0038091D1039091D2030E94B433F6
:104290006093CF037093D0038093D1039093D203A4
:1042A00027E137EB41E559E360911A0170911B0159
:1042B00080911C0190911D010E94B3334B015C0160
:1042C00020E030E0A9010E947F35181644F4809266
:1042D0001A0190921B01A0921C01B0921D010E9434
:1042E0006316BC01990F880B990B0E94CF3427E10C
:1042F00037EB41ED58E30E94843527E137EB41ED80
:1043000058E30E94B4339B01AC0160911601709197
:10431000170180911801909119010E94B3336093A5
:10432000160170931701809318019093190127E1EA
:1043300037EB41E559E360911201709113018091CF
:104340001401909115010E94B3334B015C0120E0F0
:1043500030E0A9010E947F35181644F480921201C2
:1043600090921301A0921401B09215012CEA35EC41
:1043700047E256E36091CB037091CC038091CD036B
:104380009091CE030E94B4336093CB037093CC031F
:104390008093CD039093CE0320E030E040E251E4DF
:1043A0006091CF037091D0038091D1039091D2039B
:1043B0000E947F3587FD56C00E946316BC01990F8D
:1043C000880B990B0E94CF344B015C016093CF03A3
:1043D0007093D0038093D1039093D20320E030E018
:1043E000A9010E947F3520E030E040E05FE387FDD7
:1043F00005C0C501B4010E94B43304C0C501B401B5
:104400000E94B3330E9497344B015C0120919404C5
:1044100030919504205E3F4F032E000C440B550B4A
:1044200064E170E080E090E00E9473139401220F39
:10443000331FF901EC57FC4F7183608380911101A8
:10444000882341F042E350E060E070E088EC90E0C7
:104450000E9435171092CF031092D0031092D1030F
:104460001092D20380901E0190901F01A090200115
:10447000B09021012DE73FEF4FE951E4C501B401B0
:104480000E947F35181654F423E830E040EA51E4E6
:10449000C501B4010E94203487FD4AC020911A0151
:1044A00030911B0140911C0150911D012F8B388FC1
:1044B000498F5A8F27E93FEF4FE951E46F89788D93
:1044C000898D9A8D0E947F35181664F429E630E0B4
:1044D00040EA51E46F89788D898D9A8D0E9420344D
:1044E00087FD26C08091160190911701A0911801B7
:1044F000B09119018F8B988FA98FBA8F2CEC3FEF59
:104500004FE951E4BC01CD010E947F351816E4F457
:1045100024E330E040EA51E46F89788D898D9A8DEB
:104520000E94203487FF10C080911101882361F020
:1045300080911101882341F042E350E060E070E097
:1045400088EC90E00E94351720E030E040EA51E42A
:10455000C501B4010E942034181614F00C94DB320B
:104560000E9463161816190614F40C94DB3220E02E
:1045700030E040EA51E460911A0170911B01809192
:104580001C0190911D010E942034181614F00C9407
:10459000DB3220E030E040EA51E460911601709196
:1045A000170180911801909119010E94203418166A
:1045B00014F00C94DB3220E030E040EA51E4C50115
:1045C000B4010E947F35181634F50E946316892BBA
:1045D00011F520E030E040EA51E460911A01709159
:1045E0001B0180911C0190911D010E947F351816BE
:1045F00094F420E030E040EA51E4609116017091BB
:10460000170180911801909119010E947F351816A9
:1046100014F40C94E03220E030E0A901C501B401AB
:104620000E9420341816F4F420E030E0A9016091D3
:1046300016017091170180911801909119010E9443
:10464000203418167CF420E030E0A90160911A01B2
:1046500070911B0180911C0190911D010E942034DA
:1046600018165CF181E08093D403809111018823B6
:1046700021F144EF51E060E070E084EF91E00E94AE
:10468000351766E272E080E090E00E94B11444EFDA
:1046900051E060E070E080E991E00E94351766E249
:1046A00072E080E090E00E94B11448E552E060E0E2
:1046B00070E08CE291E00E9435170E942A17109258
:1046C00099041092980410929B0410929A0480917D
:1046D000D9039091DA03019709F097C08091C9033B
:1046E0008823C1F08091C80381118FC08091C703D6
:1046F00081118BC080911101882341F042E350E089
:1047000060E070E088EC90E00E94351781E08093D3
:10471000C8037BC080911101882341F040E550E03F
:1047200060E070E08CE291E00E9435178091C60352
:10473000811104C081E08093C60361C02091C5034C
:104740008091C3039091C403222321F120910F0192
:10475000309110012F5F3F4F4BE0429FF001439F8C
:10476000F00D112468E5689FA001699F500D112488
:10477000E40FF51FE35CF24F45915491452B29F46A
:10478000D0921001C0920F0129C0309310012093E4
:104790000F0124C08730910529F41092C4031092B0
:1047A000C30305C001969093C4038093C303809113
:1047B000C3039091C40328E5289FF001299FF00DC1
:1047C0001124E85BF24F25913491232B39F0D092DC
:1047D0001001C0920F0121E02093C003019644E62E
:1047E000489F9001499F300D112480910F019091B5
:1047F0001001820F931F9093C2038093C1036CE357
:1048000070E080E090E00E94B1148091D703909115
:10481000D803019709F093C08091C9038823C1F0A0
:104820008091BF0381118BC09091C70381E08927DC
:104830008093C70380911101882309F47AC040E571
:1048400050E060E070E088E592E00E94351771C0AA
:1048500080911101882341F040E550E060E070E074
:1048600088E592E00E9435178091C603882309F4F9
:1048700045C020910F01309110018091C3039091A8
:10488000C40348E5489FF001499FF00D1124E85BFF
:10489000F24F2130310511F40C94083345915491B5
:1048A000452B79F0BC016F5F7F4FE4E6E69FA001E6
:1048B000E79F500D1124420F531F5093BE034093A6
:1048C000BD0348E5489FF001499FF00D1124E85BC6
:1048D000F24F45915491452B51F1019664E6689F42
:1048E000A001699F500D1124240F351F3093C2037E
:1048F0002093C10381E08093C50319C081E08093B8
:10490000C6038093C503D0921001C0920F0186E0C8
:1049100090E09093C4038093C3038DEB92E0909357
:10492000BE038093BD039093C2038093C103109292
:10493000C0036CE370E080E090E00E94B1148091CD
:10494000D5039091D603019709F082C0809111019F
:10495000882341F040E550E060E070E088EE93E0AD
:104960000E9435178091C903811104C08091BF0353
:104970008823F1F11092BC031092BB031092BA038A
:104980001092B9031092B80381E08093B70310929C
:104990000E0110920D0120E030E040EA51EC20932E
:1049A000090130930A0140930B0150930C011092BE
:1049B000B6031092B5031092B4031092B303109291
:1049C000C8031092B2031092B103809308011092B1
:1049D000C9031092B0031092AF031092AE0310926D
:1049E000BF031092AD031092AC031092C7032AC00C
:1049F0008091C50381110BC01092C6031092C403AD
:104A00001092C3031092C2031092C10313C01092FC
:104A1000C5032091C3033091C4032F5F3F4F44E689
:104A2000429FC001439F900D112401969093C203B1
:104A30008093C1031092BE031092BD03D092100167
:104A4000C0920F016CE370E080E090E00E94B1142E
:104A50002DEC3CEC4CEC5DE36091040170910501A0
:104A600080910601909107010E94B4334B015C01D3
:104A700060930401709305018093060190930701F0
:104A800060919404709195046A5F7F4F072E000C2B
:104A9000880B990B0E94CF349B01AC01C501B40176
:104AA0000E947F35181694F480E090E0A0ECB0EC02
:104AB0008093040190930501A0930601B093070130
:104AC0009091AB0381E089278093AB038091D3035E
:104AD000882319F081E08093AB038091AB038111AF
:104AE00015C06091040170910501809106019091BB
:104AF00007010E949734DC01CB0121E030E043E064
:104B000050E066E070E00E943E1D8DC0609104019F
:104B10007091050180910601909107010E949734E0
:104B2000DC01CB0121E030E043E050E066E070E0E2
:104B30000E943E1D20E030E040E050E4609104011E
:104B40007091050180910601909107010E94B33395
:104B50000E949734DC01CB0120E030E043E050E0DC
:104B600066E070E00E943E1D809088049090890469
:104B7000A0908A04B0908B0420E030E0A901C50128
:104B8000B4010E947F3520E030E040E05FE387FD24
:104B900005C0C501B4010E94B43304C0C501B4010D
:104BA0000E94B3330E94973425E030E040E050E0AB
:104BB0000E94603603E913E0672B682B692B01F52F
:104BC0002091940430919504032E000C440B550B56
:104BD00060E070E0CB010E947313D8016D937C9369
:104BE0006AE070E080E090E00E944F13F801738368
:104BF00062830C5F1F4FF3E00B3A1F0709F713C0E6
:104C0000D80112964D915C9113976D917C9121E0A2
:104C100030E08CE894E00E94010E0C5F1F4FB3E07F
:104C20000B3A1B0769F72AE939E949E95EE3609124
:104C300088047091890480918A0490918B040E9469
:104C4000B333609388047093890480938A049093AB
:104C50008B0420E030E040E052EC0E94203487FFDB
:104C600014C06091940470919504605E7F4F072E8C
:104C7000000C880B990B0E94CF34609388047093CA
:104C8000890480938A0490938B04609188047091C6
:104C9000890480918A0490918B040E949734DC01EE
:104CA000CB0105E010E020E230E049E25DE065E0A4
:104CB00070E00E945E1A00E110E020E830E049E276
:104CC0005CE067E070E080E090E00E945E1A809116
:104CD000C903882309F4AAC3E090AF03F090B0039E
:104CE000C7016AE070E00E948533072E000C880B34
:104CF000990BE7EFEE16EFEFFE064CF00E94CF3473
:104D000020E030E040E05FE30E94B43308C00E943E
:104D1000CF3420E030E040E05FE30E94B3330E94F4
:104D200097348B017093AD036093AC038091C803FB
:104D30008823F1F18091BF0381113AC08091C703AC
:104D4000811136C0209108018091B1039091B20386
:104D5000222361F00196800F911F9093B2038093FC
:104D6000B1030C972CF11092080122C00197801B0F
:104D7000910B9093B2038093B10318161906C4F0F7
:104D800081E0809308011092C8038091110188236B
:104D900041F042E350E060E070E084E690E00E9481
:104DA0003517FFEFEF1AFF0AF092B003E092AF035E
:104DB0008091BF0381113DC18091C703811139C129
:104DC0002091B8038091BB039091BC03222349F04A
:104DD000019758F41092BC031092BB031092B803D1
:104DE00012C001968330910529F09093BC03809303
:104DF000BB0309C082E090E09093BC038093BB03A7
:104E000081E08093B8038091B9039091BA03029630
:104E10009093BA038093B9038091B5039091B60340
:104E200004969093B6038093B50320E030E040E809
:104E30005FE36091090170910A0180910B019091EB
:104E40000C010E94B4334B015C01B801012E000C2F
:104E5000880B990B0E94CF349B01AC01C501B401B2
:104E60000E94B4336093090170930A0180930B018F
:104E700090930C0120919103309192032E5F3F4F4C
:104E8000200F311F309392032093910360918F0381
:104E9000709190036E5F7F4F060F171F1093900362
:104EA00000938F038091C8038111C3C04091B40364
:104EB0008091940490919504442349F0AC01421BE5
:104EC000530B9A01245131092B31310558F02091AF
:104ED000B303222309F4ADC0801B910B44974B9779
:104EE00008F0A7C081E08093BF038093C8038EEFD2
:104EF0009FEF9093B2038093B103809111018823B7
:104F000021F148E250E060E070E084EF91E00E941F
:104F1000351762E370E080E090E00E94B11448E24F
:104F200050E060E070E08EE591E00E94351762E3AA
:104F300070E080E090E00E94B1144CE350E060E04B
:104F400070E088EC90E00E9435170091AF0310915B
:104F5000B00380918D0390918E03801791073CF4EC
:104F600010938E0300938D0381E08093AE0320E0C5
:104F700030E040E751E460911A0170911B0180918B
:104F80001C0190911D010E94B4334B015C0120E093
:104F900030E048EC52E40E94203487FD02C00C94BB
:104FA000E83280921A0190921B01A0921C01B092EB
:104FB0001D0120E030E040E85FE360911601709150
:104FC000170180911801909119010E94B3336093E9
:104FD0001601709317018093180190931901B8017D
:104FE000110F880B990B0E94CF342AE037ED43E272
:104FF0005BE30E9484359B01AC01609100017091DC
:10500000010180910201909103010E94B3334B0191
:105010005C0120E030E040EA50E40E947F35181641
:1050200044F48092000190920101A0920201B0929A
:10503000030160919404709195048091B90390915B
:10504000BA038617970721F41092BA031092B90396
:105050008091B5039091B6038617970721F41092BB
:10506000B6031092B503072E000C880B990B0E9413
:10507000CF349B01AC016091090170910A018091CC
:105080000B0190910C010E94203481110CC080E032
:1050900090E0A0E0B3EC8093090190930A01A09303
:1050A0000B01B0930C018091C8038823B9F0809163
:1050B000B1039091B2036AE170E0681B790B08E1DB
:1050C00010E020E330E049E95BE08AE090E00E94F4
:1050D0005E1AA12CB12CE12CF12C30C0E091BB0365
:1050E000F091BC03EE0FFF1FE15DFC4F4081518149
:1050F00008E110E020E330E06AE170E0E6CF3595AA
:105100002795359527952E153F0514F18091B90304
:105110009091BA0306E010E028E030E043E95BE05C
:1051200062E370E0D501A81BB90BCD010E945E1AA5
:10513000BFEFEB1AFB0AE8E0AE0EB11C80919404BD
:10514000909195049C0197FFDACF2D5F3F4FD7CF09
:1051500020919103309192032F50310982179307C8
:1051600034F410929203109291031092B403809140
:10517000B403811112C069E070E080E090E00E9409
:105180004F13672B682B692B41F480918F0390910B
:105190009003899714F00C94F6328091B40388231D
:1051A000A1F08091940490919504E0919103F09185
:1051B000920306E010E020E130E047E85BE06CE2BB
:1051C00070E08E1B9F0B0E945E1A80918F0390915E
:1051D00090030F9720919404309195042817390774
:1051E00034F41092900310928F031092B3038091C5
:1051F000B303811112C069E070E080E090E00E948A
:105200004F13672B682B692B41F480919103909188
:105210009203899714F00C94FF328091B303882392
:10522000A1F08091940490919504E0918F03F09106
:10523000900306E010E020E130E04BE75BE06CE239
:1052400070E08E1B9F0B0E945E1AA12CB12CE12CEA
:10525000F12C809194049091950497FD0F9654E061
:10526000959587955A95E1F78E159F05CCF080911D
:10527000B5039091B60308E010E020E230E04BE582
:105280005BE06CE370E0D501A81BB90BCD010E9477
:105290005E1ABFEFEB1AFB0AE0E2AE0EB11CD9CFEB
:1052A0008091090190910A01A0910B01B0910C012C
:1052B000BC01CD0190580E949734DC01CB0104E180
:1052C00010E020E730E043E45AE067E170E00E943C
:1052D0005E1A8091BF03811138C010929904109218
:1052E000980408E310E010939B0400939A04D09272
:1052F0009F04C0929E04D0929D04C0929C048DE3B2
:105300009AE00E94E81A8091AC039091AD030E944C
:10531000131E80E490E09093990480939804109376
:105320009B0400939A04D0929F04C0929E04D09252
:105330009D04C0929C0487E39AE00E94E81A809141
:10534000AF039091B0030E94131E8091C70388237E
:1053500009F443C28090880490908904A0908A0444
:10536000B0908B0420E030E0A901C501B4010E9497
:105370007F3520E030E040E05FE387FD0FC0C501EE
:10538000B4010E94B4330E949734DC01CB018170D8
:105390009927AA27BB27F1E08F270EC0C501B401CA
:1053A0000E94B3330E949734DC01CB0181709927AE
:1053B000AA27BB2721E08227682F617009F40DC25C
:1053C000E12CF12C0FE010E020E530E04BE050E064
:1053D00068E170E08CE894E00E943B11EE24E394D5
:1053E000F12C0DE010E02EE430E04CE050E069E1FB
:1053F00070E08CE894E00E943B118FE290E0909383
:105400009904809398048FE090E090939B0480939C
:105410009A0410929F0410929E0410929D04109280
:105420009C0480E39AE00E941B1BD7C14091D303E8
:10543000E091BB03F091BC038091B9039091BA0352
:1054400020910D0130910E01E20FF31FEE0FFF1FAF
:10545000E15DFC4F41110BC04081518108E110E03A
:1054600020E330E06AE170E00E945E1A90C0408163
:10547000518108E110E020E330E06DE170E00E942E
:105480005E1A8091B7038090880490908904A09060
:105490008A04B0908B040091B9031091BA0320E004
:1054A00030E0A9018823C9F1C501B4010E947F350C
:1054B00020E030E040E05FE387FD05C0C501B401B6
:1054C0000E94B43304C0C501B4010E94B3330E94EA
:1054D0009734A20191010E946036672B682B692BDB
:1054E00069F4005D1F4F1093990400939804709223
:1054F0009B0460929A048EE29AE047C0025D1F4FBF
:10550000109399040093980486E290E090939B0492
:1055100080939A048CE29AE038C0C501B4010E94DD
:105520007F3520E030E040E05FE387FD05C0C50146
:10553000B4010E94B43304C0C501B4010E94B33366
:105540000E949734A20191010E946036672B682B5C
:10555000692B69F40450110910939904009398047D
:1055600070929B0460929A048AE29AE00EC0025004
:105570001109109399040093980486E290E09093A7
:105580009B0480939A0488E29AE00E94E81A309182
:10559000B7032091D3038091B9039091BA033323C9
:1055A000B1F1211124C001969093BA038093B903FD
:1055B0008091B5039091B60302969093B6038093C1
:1055C000B50320E030E040E05FE3609109017091B5
:1055D0000A0180910B0190910C010E94B4336093F9
:1055E000090170930A0180930B0190930C01809143
:1055F000B9039091BA0381359105E4F11092B70394
:1056000083E090E090930E0180930D0133C021114F
:1056100024C001979093BA038093B9038091B50396
:105620009091B60302979093B6038093B50320E060
:1056300030E040E05FE36091090170910A018091E0
:105640000B0190910C010E94B33360930901709398
:105650000A0180930B0190930C018091B903909102
:10566000BA0397FF07C081E08093B70310920E0141
:1056700010920D01A12CB12CE12CF12C80919404FD
:105680009091950497FD019695958795E816F906F2
:10569000CCF48091B9039091BA0306E010E028E0C1
:1056A00030E043E95BE062E370E0D501A81BB90B91
:1056B000CD010E945E1ABFEFEB1AFB0AE8E0AE0EC6
:1056C000B11CDCCF04E8E02E03E0F02ED7018D9171
:1056D0009D917D011816190684F4E091B903F091AB
:1056E000BA0306E010E020E130E04CE15AE06CE261
:1056F00070E08E1B9F0B0E945E1ABAE8EB16B3E0B7
:10570000FB0621F7A12CB12CE12CF12C8091940403
:105710009091950497FD079613E0959587951A95B6
:10572000E1F7E816F906CCF48091B5039091B60341
:1057300008E010E020E230E04BE55BE068E370E079
:10574000F501E81BF90BCF010E945E1AFFEFEF1A7B
:10575000FF0A20E2A20EB11CD9CF809109019091DD
:105760000A01A0910B01B0910C01BC01CD01905830
:105770000E949734DC01CB0104E110E020E730E027
:1057800043E45AE067E170E00E945E1A8091D3031F
:10579000811123C02091B8038091BB039091BC0379
:1057A000222349F0019758F41092BC031092BB03D6
:1057B0001092B80312C001968330910529F090939E
:1057C000BC038093BB0309C082E090E09093BC03CC
:1057D0008093BB0381E08093B8038091C603882344
:1057E00009F418C18091C903811114C12091940456
:1057F00030919504E12CF12C0EE110E040E050E0F6
:1058000060E070E08CE894E00E943B1120919404E9
:1058100030919504EE24E394F12C0DE110E040E08A
:1058200050E060E070E08CE894E00E949D112091CF
:1058300094043091950422503109E12CF12C0BE1B4
:1058400010E041E050E061E070E08CE894E00E94FC
:105850003B112091940430919504EE24E394F12CB3
:105860000CE010E040E050E060E070E08CE894E094
:105870000E949D1188E090E0909399048093980491
:1058800082E090E090939B0480939A0481E080935F
:10589000A0048091C5038823C9F12091940430911C
:1058A000950440E050E060E070E08CE894E00E94F5
:1058B0003B1105E010E021E030E042E150E061E022
:1058C00070E08CE894E00E943B1103E010E021E0DE
:1058D00030E043E150E062E070E08CE894E00E9448
:1058E0003B1101E010E021E030E044E150E063E0F2
:1058F00070E08CE894E00E943B1110929D0410929D
:105900009C04D0929F04C0929E042FC0EE24E39486
:10591000F12C05E010E021E030E043E050E061E0F0
:1059200070E08CE894E00E943B1103E010E021E07D
:1059300030E044E050E062E070E08CE894E00E94E7
:105940003B1101E010E021E030E045E050E063E091
:1059500070E08CE894E00E943B11D0929F04C092CA
:105960009E04D0929D04C0929C048091C3039091A8
:10597000C40318E5189FB001199F700D1124635CD2
:10598000724F4BE050E0CE010C960E945736CE018C
:105990000C960E94091B83E793E00E94091B8091EB
:1059A0000F01909110010097A9F1D0929F04C0922D
:1059B0009E04D0929D04C0929C0428E030E0309375
:1059C00099042093980420E130E030939B042093C5
:1059D0009A042BE0289FB001299F700D112420917B
:1059E000C3033091C403129FC001139F900D112473
:1059F000680F791F635C724F4BE050E0CE01019657
:105A00000E945736CE0101960E94091B83E793E05E
:105A10000E94091B8091BD039091BE0318161906C0
:105A20000CF09CC385569109039708F00AC2809137
:105A3000D303811106C220E030E040E251E46091DE
:105A400012017091130180911401909115010E942F
:105A500025344B015C0120E030E0A9010E947F3534
:105A600020E030E040E05FE387FD05C0C501B40100
:105A70000E94B43304C0C501B4010E94B3330E9434
:105A800097342BE030E040E050E0261B370B480B0A
:105A9000590B61E070E080E090E00E947313613088
:105AA00071058105910509F0CCC100919604109112
:105AB00097042091940430919504E12CF12C40E05E
:105AC00050E060E070E08CE894E00E943B1147E217
:105AD00053E0588F4F8B65E0A62EB12C8824839419
